:020000040800F2
:1000000000000220CD0B00081D0C00081D0C00088C
:100010001D0C00081D0C00081D0C0008000000004D
:100020000000000000000000000000001D0C00089F
:100030001D0C0008000000001D0C00081D0C00082D
:100040001D0C00081D0C00081D0C00081D0C0008EC
:100050001D0C00081D0C00081D0C00081D0C0008DC
:100060001D0C00081D0C00081D0C00081D0C0008CC
:100070001D0C00081D0C00081D0C00081D0C0008BC
:100080001D0C00081D0C00081D0C000800000000DD
:100090000000000000000000000000001D0C00082F
:1000A0001D0C0008350300081D0C00081D0C00087D
:1000B0001D0C00081D0C00081D0C00081D0C00087C
:1000C0001D0C00081D0C00081D0C00081D0C00086C
:1000D0001D0C00081D0C00081D0C0008000000008D
:1000E0001D0C00081D0C00081D0C0008000000007D
:1000F0000000000000000000000000001D0C0008CF
:10010000000000001D0C00081D0C00081D0C00085C
:1001100000000000000000000000000000000000DF
:100120001D0C00081D0C00081D0C00081D0C00080B
:100130001D0C00080000000000000000000000008E
:100140000000000000000000000000001D0C00087E
:100150001D0C00081D0C00081D0C00081D0C0008DB
:100160001D0C00081D0C000800000000000000002D
:10017000000000000000000000000000000000007F
:10018000000000001D0C000800000000000000003E
:080190001D0C00081D0C000805
:1001980080B485B000AF354BFB60354BBB60354B49
:1001A8007B60FB681B6843F48032FB681A6000BF01
:1001B800FB681B6803F40033002BF9D0BB681B688D
:1001C80023F03F02BB681A60BB681B6843F0080253
:1001D800BB681A60BB681B6823F4FF4323F0400325
:1001E800BA681360BB681B6843F44852BB681A605E
:1001F800BB681B6823F44032BB681A60BB681B6885
:1002080043F44032BB681A60BB681B6843F4800241
:10021800BB681A60FB681B6843F08072FB681A6051
:1002280000BFFB681B6803F00073002BF9D07B68E4
:100238001B6823F4E0527B681A607B681B6843F4F0
:1002480080527B681A600C4B3B603B681B6843F02C
:1002580003023B681A607B681B6843F002027B68F4
:100268001A6000BF1437BD4680BC70470038024092
:100278000438024008380240003C024080B485B08F
:1002880000AF7860074BFB60FB681B6801217A6848
:1002980001FA02F21A43FB681A6000BF1437BD4620
:1002A80080BC70473038024080B485B000AF7860B9
:1002B800074BFB60FB681B6801217A6801FA02F2B0
:1002C8001A43FB681A6000BF1437BD4680BC7047EC
:1002D8003438024080B485B000AF7860074BFB60CB
:1002E800FB681B6801217A6801FA02F21A43FB686D
:1002F8001A6000BF1437BD4680BC704740380240C2
:1003080080B485B000AF7860074BFB60FB681B6862
:1003180001217A6801FA02F21A43FB681A6000BFE9
:100328001437BD4680BC70474438024080B483B05F
:1003380000AF094B7B607B681B8823F001039AB2EE
:100348007B681A80054B1B680133044A136000BFA1
:100358000C37BD4680BC70471000014004000020E7
:1003680080B485B000AF7860084B1B68FB6000BFA5
:10037800064B1A68FB68D31A7A689A42F8D800BF05
:1003880000BF1437BD4680BC704700BF0400002082
:1003980080B586B000AF0020FFF7B2FF144B7B6139
:1003A800144B3B61144BFB60144BBB607B694FF4EF
:1003B8007A721A803B690F221A80FB681B8843F007
:1003C80001039AB2FB681A80BB681B8843F00103DB
:1003D8009AB2BB681A800A4B7B607B681B6843F043
:1003E80000727B681A6000BF1837BD4680BD00BF29
:1003F8002C000140280001400C0001400000014091
:1004080000E100E080B582B000AF0320FFF736FFBF
:10041800084B7B607B681B6843F0AA427B681A60C4
:100428007B681B6823F470427B681A6000BF08373A
:10043800BD4680BD000C024080B485B000AF0346C5
:100448000A46FB711346BB710F4BFB60BB79012B4E
:1004580008D1FB681B68FA79012101FA02F21A43F4
:10046800FB681A60BB79002B09D1FB681B68FA7915
:10047800012101FA02F2D2431A40FB681A6000BF58
:100488001437BD4680BC7047140C024080B588B054
:1004980000AF0320FFF7F2FE2B4BFB612B4BBB6138
:1004A800FB691B6823F04072FB691A60FB691B68D3
:1004B80043F00072FB691A60BB691B6823F4702261
:1004C800BB691A60BB691B6843F40032BB691A60D8
:1004D8000220FFF7FFFE1E4B7B611E4B3B611E4B4C
:1004E800FB601E4BBB601E4B7B601E4B3B607B69F9
:1004F80040F23F621A603B6964221A60FB6800227E
:100508001A60BB681B6823F00302BB681A60BB68EB
:100518001B6823F07002BB681A60BB681B6843F055
:100528006002BB681A607B681B6843F001027B6845
:100538001A603B681B6843F001023B681A6000BF01
:100548002037BD4680BD00BF000C0240240C02408D
:10055800280800402C0800403408004018080040D3
:10056800200800400008004080B485B000AF034672
:10057800FB71FB79642B05D8054BFB60FA79FB68A6
:100588001A6000E000BF1437BD4680BC704700BF4A
:100598003408004080B586B000AF0020FFF76EFE3B
:1005A800254B7B61254B3B617B691B6823F47C42AF
:1005B8007B691A607B691B6843F428427B691A606F
:1005C8003B691B68C3F313023B691A603B691B68EC
:1005D80043F0AA4343F4A0033A6913600420FFF7E9
:1005E8004DFE174BFB60FB681B6843F04002FB683D
:1005F8001A60144BBB60BB681B6843F00802BB68F9
:100608001A600C20FFF77CFE0F4B7B607B681B6831
:1006180043F018027B681A607B681B6843F44072D9
:100628007B681A607B681B6843F044027B681A6029
:1006380000BF1837BD4680BD0000024020000240C0
:1006480000100240141002400030014080B487B00E
:1006580000AF0346FB710023FB75164B3B61164B3D
:10066800FB6000BFFB681B6803F00203002BF9D096
:10067800FA793B691A6000BFFB681B6803F08003C6
:10068800002BF9D100BFFB681B6803F00103002BA6
:10069800F9D03B691B68FB7500BFFB681B6803F05A
:1006A8008003002BF9D100BF00BF1C37BD4680BCBA
:1006B800704700BF0C3001400830014080B485B05D
:1006C80000AF0023FB73164BBB60164B7B6000BF6B
:1006D8007B681B6803F00203002BF9D0BB68FF227C
:1006E8001A6000BF7B681B6803F08003002BF9D1F8
:1006F80000BF7B681B6803F00103002BF9D0BB68BF
:100708001B68FB7300BF7B681B6803F08003002B2A
:10071800F9D1FB7B18461437BD4680BC704700BF33
:100728000C3001400830014080B483B000AF064B64
:100738007B607B681B6823F008027B681A6000BF37
:100748000C37BD4680BC70471410024080B483B09B
:1007580000AF064B7B607B681B6843F008027B6830
:100768001A6000BF0C37BD4680BC704714100240A9
:1007780080B500AFFFF7D8FF2020FFF767FF2720DD
:10078800FFF764FF2320FFF761FF0920FFF75EFFF3
:10079800FFF7DCFF00BF80BD80B582B000AFFFF778
:1007A800C3FFA820FFF752FFFFF788FF0346FB713E
:1007B800A920FFF74BFFFFF781FF0346BB71FFF747
:1007C800C5FFFB791AB2BB791B021BB21343BB806E
:1007D800B7F90430002B00DA0F331B11BB80B7F9CF
:1007E800043018460837BD4680BD80B582B000AFDA
:1007F800FFF79AFFAA20FFF729FFFFF75FFF0346DD
:10080800FB71AB20FFF722FFFFF758FF0346BB71D0
:10081800FFF79CFFFB791AB2BB791B021BB213438B
:10082800BB80B7F90430002B00DA0F331B11BB80F3
:10083800BB8818460837BD4680BD80B582B000AF7A
:10084800FFF772FFAC20FFF701FFFFF737FF034602
:10085800FB71AD20FFF7FAFEFFF730FF0346BB71CF
:10086800FFF774FFFB791AB2BB791B021BB2134363
:10087800BB80B7F90430002B00DA0F331B11BB80A3
:10088800BB8818460837BD4680BD80B582B000AF2A
:100898008F23FB71FFF748FFFB791846FFF7D6FE59
:1008A800FFF70CFF0346BB71FFF750FFBB791846F3
:1008B8000837BD4680BD00BF80B588B000AF1520A1
:1008C800FFF708FD0120FFF7D9FC274BFB61FB6907
:1008D8001B6843F40222FB691A60244BBB61BB69A5
:1008E8001B6843F48222BB691A60214B7B617B69D8
:1008F8001B6823F070627B691A607B691B6843F090
:1009080080627B691A601B4B3B613B691B6823F063
:10091800F0023B691A603B691B6843F040023B697F
:100928001A60154BFB60FB681B6823F00102FB682B
:100938001A60124BBB60BB681B6843F01002BB68AF
:100948001A600F4B7B607B681B6843F050027B6822
:100958001A60FB681B6843F00102FB681A6000BF5D
:100968002037BD4680BD00BF000402400C04024091
:100978002004024024040240005400400454004073
:100988001C54004080B489B000AF344BFB61344B39
:10099800BB61344B7B61344B3B611923FB7300BF54
:1009A8003B691B6803F00203002BF9D1FB691B6844
:1009B80043F48072FB691A6000BF7B691B6803F00F
:1009C8000103002BF9D0FB7B5A00BB691A6000BFFA
:1009D8007B691B6803F00203002BF9D03B691B6895
:1009E800BB60BB690F221A6000BF7B691B6803F0FC
:1009F8000403002BF9D000BF7B691B6803F48063F4
:100A0800002BF9D1FB691B6843F48072FB691A60FB
:100A180000BF7B691B6803F00103002BF9D0FB7B47
:100A28005B0043F001031A46BB691A6000BF7B698B
:100A38001B6803F00203002BF9D03B691B68BB60FD
:100A4800BB691B68FB71FB691B6843F40072FB6997
:100A58001A6000BF2437BD4680BC70470054004070
:100A680010540040145400401854004080B582B01F
:100A780000AFFFF7C7FCFFF78BFCFFF789FBFFF719
:100A880005FDFFF787FDFFF700FF0346FB71FFF742
:100A98006FFEFFF711FFFFF775FF00BF0837BD4670
:100AA80080BD80B582B000AFFFF7E0FF00237B6018
:100AB80001210D20FFF7C0FC7B6801337B607B6858
:100AC800642B01DD00237B607B68DBB21846FFF7EF
:100AD8004BFD0A20FFF744FCEAE780B400AF00BFF3
:100AE800BD4680BC7047000018009FE518309FE5A0
:100AF800000053E11EFF2F0110309FE5000053E373
:100B08001EFF2F0113FF2FE1040000200400002026
:100B18000000000024009FE524309FE5003043E0FA
:100B2800A31FA0E1431181E0C110B0E11EFF2F0116
:100B380010309FE5000053E31EFF2F0113FF2FE144
:100B480004000020040000200000000010402DE9EF
:100B58002C409FE50030D4E5000053E30600001A5E
:100B6800E0FFFFEB1C309FE5000053E318009F15E2
:100B78000000A0110130A0E30030C4E51040BDE83A
:100B88001EFF2FE10800002000000000FC0D0008F7
:100B980020309FE5000053E30500000A10402DE9CE
:100BA80014109FE514009FE50000A0E11040BDE887
:100BB800D7FFFFEAD6FFFFEA000000000C00002084
:100BC800FC0D0008DFF834D0FFF787FF0C480D490B
:100BD8000D4A002302E0D458C4500433C4188C4290
:100BE800F9D30A4A0A4C002301E013600432A242F6
:100BF800FBD300F011F8FFF754FF70470000022004
:100C08000000002004000020380E00080400002026
:100C1800BC010020FEE7000070402DE974309FE51C
:100C280074509FE5050053E1056043E00800000AA1
:100C38000040A0E34661A0E1045045E20430B5E578
:100C4800014084E20FE0A0E113FF2FE1040056E128
:100C5800F9FFFF8A660000EB40509FE540309FE5B2
:100C6800056043E0050053E14661A0E10700000A82
:100C78000040A0E3045045E20430B5E5014084E2B9
:100C88000FE0A0E113FF2FE1040056E1F9FFFF8A0E
:100C98007040BDE81EFF2FE12C0E00082C0E000846
:100CA8002C0E0008340E00081EFF2FE11EFF2FE156
:100CB80018309FE5000053E31EFF2F0110402DE977
:100CC8000C009FE5030000EB1040BDE81EFF2FE17C
:100CD80000000000000D00080030A0E310402DE9DE
:100CE8000010A0E10320A0E10300A0E1120000EB46
:100CF8001040BDE81EFF2FE170402DE930509FE500
:100D080030409FE5044045E04441B0E10500000A59
:100D1800043035E5014044E20FE0A0E113FF2FE184
:100D2800000054E3F9FFFF1A370000EB7040BDE8FC
:100D38001EFF2FE1380E0008340E0008F0412DE99F
:100D4800A0809FE50040A0E1000098E50360A0E1D5
:100D58000150A0E10270A0E1D2FFFFEB88309FE5CF
:100D680000C093E500005CE380C09F0504E09CE5BB
:100D780000C083051F005EE3000098E5160000CA66
:100D8800000054E30700001A01308EE202E08EE210
:100D980004308CE50E518CE7C3FFFFEB0000A0E3A5
:100DA800F041BDE81EFF2FE10130A0E30E118CE0F9
:100DB800887081E588219CE5133EA0E1032082E14B
:100DC80088218CE5086181E5020054E38C219C05AB
:100DD800033082018C318C05EAFFFFEAB2FFFFEB9A
:100DE8000000E0E3EDFFFFEA0000002028000020FB
:100DF8002C0000200DC0A0E1F8DF2DE904B04CE282
:100E080028D04BE2F06F9DE81EFF2FE10DC0A0E156
:100E1800F8DF2DE904B04CE228D04BE2F06F9DE8F2
:040E28001EFF2FE199
:080E2C00B80C0008980B000847
:040E3400540B000853
:040E38002400002072
:0400000508000BCD17
:00000001FF
