:020000040800F2
:10000000000002201D0600086D0600086D060008AD
:100010006D0600086D0600086D060008000000006F
:100020000000000000000000000000006D06000855
:100030006D060008000000006D0600086D0600084F
:100040006D0600086D0600086D0600086D060008C4
:100050006D0600086D0600086D0600086D060008B4
:100060006D0600086D0600086D0600086D060008A4
:100070006D0600086D0600086D0600086D06000894
:100080006D0600086D0600086D06000800000000FF
:100090000000000000000000000000006D060008E5
:1000A0006D060008350300086D0600086D0600089F
:1000B0006D0600086D0600086D0600086D06000854
:1000C0006D0600086D0600086D0600086D06000844
:1000D0006D0600086D0600086D06000800000000AF
:1000E0006D0600086D0600086D060008000000009F
:1000F0000000000000000000000000006D06000885
:10010000000000006D0600086D0600086D0600087E
:1001100000000000000000000000000000000000DF
:100120006D0600086D0600086D0600086D060008E3
:100130006D06000800000000000000000000000044
:100140000000000000000000000000006D06000834
:100150006D0600086D0600086D0600086D060008B3
:100160006D0600086D060008000000000000000099
:10017000000000000000000000000000000000007F
:10018000000000006D0600080000000000000000F4
:080190006D0600086D06000871
:1001980080B485B000AF354BFB60354BBB60354B49
:1001A8007B60FB681B6843F48032FB681A6000BF01
:1001B800FB681B6803F40033002BF9D0BB681B688D
:1001C80023F03F02BB681A60BB681B6843F0080253
:1001D800BB681A60BB681B6823F4FF4323F0400325
:1001E800BA681360BB681B6843F44852BB681A605E
:1001F800BB681B6823F44032BB681A60BB681B6885
:1002080043F44032BB681A60BB681B6843F4800241
:10021800BB681A60FB681B6843F08072FB681A6051
:1002280000BFFB681B6803F00073002BF9D07B68E4
:100238001B6823F4E0527B681A607B681B6843F4F0
:1002480080527B681A600C4B3B603B681B6843F02C
:1002580003023B681A607B681B6843F002027B68F4
:100268001A6000BF1437BD4680BC70470038024092
:100278000438024008380240003C024080B485B08F
:1002880000AF7860074BFB60FB681B6801217A6848
:1002980001FA02F21A43FB681A6000BF1437BD4620
:1002A80080BC70473038024080B485B000AF7860B9
:1002B800074BFB60FB681B6801217A6801FA02F2B0
:1002C8001A43FB681A6000BF1437BD4680BC7047EC
:1002D8003438024080B485B000AF7860074BFB60CB
:1002E800FB681B6801217A6801FA02F21A43FB686D
:1002F8001A6000BF1437BD4680BC704740380240C2
:1003080080B485B000AF7860074BFB60FB681B6862
:1003180001217A6801FA02F21A43FB681A6000BFE9
:100328001437BD4680BC70474438024080B483B05F
:1003380000AF094B7B607B681B8823F001039AB2EE
:100348007B681A80054B1B680133044A136000BFA1
:100358000C37BD4680BC70471000014004000020E7
:1003680080B485B000AF7860084B1B68FB6000BFA5
:10037800064B1A68FB68D31A7A689A42F8D800BF05
:1003880000BF1437BD4680BC704700BF0400002082
:1003980080B586B000AF0020FFF7B2FF144B7B6139
:1003A800144B3B61144BFB60144BBB607B694FF4EF
:1003B8007A721A803B690F221A80FB681B8843F007
:1003C80001039AB2FB681A80BB681B8843F00103DB
:1003D8009AB2BB681A800A4B7B607B681B6843F043
:1003E80000727B681A6000BF1837BD4680BD00BF29
:1003F8002C000140280001400C0001400000014091
:1004080000E100E080B582B000AF0320FFF736FFBF
:10041800084B7B607B681B6843F0AA427B681A60C4
:100428007B681B6823F470427B681A6000BF08373A
:10043800BD4680BD000C024080B485B000AF0346C5
:100448000A46FB711346BB710F4BFB60BB79012B4E
:1004580008D1FB681B68FA79012101FA02F21A43F4
:10046800FB681A60BB79002B09D1FB681B68FA7915
:10047800012101FA02F2D2431A40FB681A6000BF58
:100488001437BD4680BC7047140C024080B500AFDD
:10049800FFF7B8FFFFF77CFF00BF80BD80B582B0D3
:1004A80000AFFFF7F3FF00237B6041F28830FFF7CE
:1004B80057FF00F01DF800F007F8F6E780B400AF2A
:1004C80000BFBD4680BC704780B483B000AF074B07
:1004D8007B607B681B6843F004027B681A6030BF4E
:1004E80000BF0C37BD4680BC704700BF10ED00E070
:1004F80080B485B000AF0D4BFB600D4BBB600D4B5E
:100508007B60FB6845F255521A60BB6803221A608B
:100518007B6840F6B8321A60FB684CF6CC421A6029
:1005280000BF1437BD4680BC704700BF0030004094
:10053800043000400830004018009FE518309FE55F
:10054800000053E11EFF2F0110309FE5000053E328
:100558001EFF2F0113FF2FE10400002004000020DC
:100568000000000024009FE524309FE5003043E0B0
:10057800A31FA0E1431181E0C110B0E11EFF2F01CC
:1005880010309FE5000053E31EFF2F0113FF2FE1FA
:1005980004000020040000200000000010402DE9A5
:1005A8002C409FE50030D4E5000053E30600001A14
:1005B800E0FFFFEB1C309FE5000053E318009F1598
:1005C8000000A0110130A0E30030C4E51040BDE8F0
:1005D8001EFF2FE108000020000000004C08000862
:1005E80020309FE5000053E30500000A10402DE984
:1005F80014109FE514009FE50000A0E11040BDE83D
:10060800D7FFFFEAD6FFFFEA000000000C00002039
:100618004C080008DFF834D0FFF750FF0C480D49AC
:100628000D4A002302E0D458C4500433C4188C4245
:10063800F9D30A4A0A4C002301E013600432A242AB
:10064800FBD300F011F8FFF729FF704700000220E4
:100658000000002004000020880800080400002092
:10066800BC010020FEE7000070402DE974309FE5D2
:1006780074509FE5050053E1056043E00800000A57
:100688000040A0E34661A0E1045045E20430B5E52E
:10069800014084E20FE0A0E113FF2FE1040056E1DE
:1006A800F9FFFF8A660000EB40509FE540309FE568
:1006B800056043E0050053E14661A0E10700000A38
:1006C8000040A0E3045045E20430B5E5014084E26F
:1006D8000FE0A0E113FF2FE1040056E1F9FFFF8AC4
:1006E8007040BDE81EFF2FE17C0800087C08000868
:1006F8007C080008840800081EFF2FE11EFF2FE178
:1007080018309FE5000053E31EFF2F0110402DE92C
:100718000C009FE5030000EB1040BDE81EFF2FE131
:1007280000000000500700080030A0E310402DE949
:100738000010A0E10320A0E10300A0E1120000EBFB
:100748001040BDE81EFF2FE170402DE930509FE5B5
:1007580030409FE5044045E04441B0E10500000A0F
:10076800043035E5014044E20FE0A0E113FF2FE13A
:10077800000054E3F9FFFF1A370000EB7040BDE8B2
:100788001EFF2FE18808000884080008F0412DE9C1
:10079800A0809FE50040A0E1000098E50360A0E18B
:1007A8000150A0E10270A0E1D2FFFFEB88309FE585
:1007B80000C093E500005CE380C09F0504E09CE571
:1007C80000C083051F005EE3000098E5160000CA1C
:1007D800000054E30700001A01308EE202E08EE2C6
:1007E80004308CE50E518CE7C3FFFFEB0000A0E35B
:1007F800F041BDE81EFF2FE10130A0E30E118CE0AF
:10080800887081E588219CE5133EA0E1032082E100
:1008180088218CE5086181E5020054E38C219C0560
:10082800033082018C318C05EAFFFFEAB2FFFFEB4F
:100838000000E0E3EDFFFFEA0000002028000020B0
:100848002C0000200DC0A0E1F8DF2DE904B04CE237
:1008580028D04BE2F06F9DE81EFF2FE10DC0A0E10C
:10086800F8DF2DE904B04CE228D04BE2F06F9DE8A8
:040878001EFF2FE14F
:08087C0008070008E805000868
:04088400A4050008BF
:040888002400002028
:040000050800061DCC
:00000001FF
